{
  "_format": "hh-sol-artifact-1",
  "contractName": "HypeNFT",
  "sourceName": "contracts/HypeNFT.sol",
  "abi": [
    {
      "inputs": [],
      "stateMutability": "nonpayable",
      "type": "constructor"
    },
    {
      "inputs": [],
      "name": "ERC721EnumerableForbiddenBatchMint",
      "type": "error"
    },
    {
      "inputs": [
        {
          "internalType": "address",
          "name": "sender",
          "type": "address"
        },
        {
          "internalType": "uint256",
          "name": "tokenId",
          "type": "uint256"
        },
        {
          "internalType": "address",
          "name": "owner",
          "type": "address"
        }
      ],
      "name": "ERC721IncorrectOwner",
      "type": "error"
    },
    {
      "inputs": [
        {
          "internalType": "address",
          "name": "operator",
          "type": "address"
        },
        {
          "internalType": "uint256",
          "name": "tokenId",
          "type": "uint256"
        }
      ],
      "name": "ERC721InsufficientApproval",
      "type": "error"
    },
    {
      "inputs": [
        {
          "internalType": "address",
          "name": "approver",
          "type": "address"
        }
      ],
      "name": "ERC721InvalidApprover",
      "type": "error"
    },
    {
      "inputs": [
        {
          "internalType": "address",
          "name": "operator",
          "type": "address"
        }
      ],
      "name": "ERC721InvalidOperator",
      "type": "error"
    },
    {
      "inputs": [
        {
          "internalType": "address",
          "name": "owner",
          "type": "address"
        }
      ],
      "name": "ERC721InvalidOwner",
      "type": "error"
    },
    {
      "inputs": [
        {
          "internalType": "address",
          "name": "receiver",
          "type": "address"
        }
      ],
      "name": "ERC721InvalidReceiver",
      "type": "error"
    },
    {
      "inputs": [
        {
          "internalType": "address",
          "name": "sender",
          "type": "address"
        }
      ],
      "name": "ERC721InvalidSender",
      "type": "error"
    },
    {
      "inputs": [
        {
          "internalType": "uint256",
          "name": "tokenId",
          "type": "uint256"
        }
      ],
      "name": "ERC721NonexistentToken",
      "type": "error"
    },
    {
      "inputs": [
        {
          "internalType": "address",
          "name": "owner",
          "type": "address"
        },
        {
          "internalType": "uint256",
          "name": "index",
          "type": "uint256"
        }
      ],
      "name": "ERC721OutOfBoundsIndex",
      "type": "error"
    },
    {
      "inputs": [
        {
          "internalType": "address",
          "name": "owner",
          "type": "address"
        }
      ],
      "name": "OwnableInvalidOwner",
      "type": "error"
    },
    {
      "inputs": [
        {
          "internalType": "address",
          "name": "account",
          "type": "address"
        }
      ],
      "name": "OwnableUnauthorizedAccount",
      "type": "error"
    },
    {
      "inputs": [],
      "name": "ReentrancyGuardReentrantCall",
      "type": "error"
    },
    {
      "anonymous": false,
      "inputs": [
        {
          "indexed": true,
          "internalType": "address",
          "name": "owner",
          "type": "address"
        },
        {
          "indexed": true,
          "internalType": "address",
          "name": "approved",
          "type": "address"
        },
        {
          "indexed": true,
          "internalType": "uint256",
          "name": "tokenId",
          "type": "uint256"
        }
      ],
      "name": "Approval",
      "type": "event"
    },
    {
      "anonymous": false,
      "inputs": [
        {
          "indexed": true,
          "internalType": "address",
          "name": "owner",
          "type": "address"
        },
        {
          "indexed": true,
          "internalType": "address",
          "name": "operator",
          "type": "address"
        },
        {
          "indexed": false,
          "internalType": "bool",
          "name": "approved",
          "type": "bool"
        }
      ],
      "name": "ApprovalForAll",
      "type": "event"
    },
    {
      "anonymous": false,
      "inputs": [
        {
          "indexed": true,
          "internalType": "address",
          "name": "previousOwner",
          "type": "address"
        },
        {
          "indexed": true,
          "internalType": "address",
          "name": "newOwner",
          "type": "address"
        }
      ],
      "name": "OwnershipTransferred",
      "type": "event"
    },
    {
      "anonymous": false,
      "inputs": [
        {
          "indexed": true,
          "internalType": "address",
          "name": "from",
          "type": "address"
        },
        {
          "indexed": true,
          "internalType": "address",
          "name": "to",
          "type": "address"
        },
        {
          "indexed": true,
          "internalType": "uint256",
          "name": "tokenId",
          "type": "uint256"
        }
      ],
      "name": "Transfer",
      "type": "event"
    },
    {
      "inputs": [
        {
          "internalType": "address",
          "name": "to",
          "type": "address"
        },
        {
          "internalType": "uint256",
          "name": "tokenId",
          "type": "uint256"
        }
      ],
      "name": "approve",
      "outputs": [],
      "stateMutability": "nonpayable",
      "type": "function"
    },
    {
      "inputs": [
        {
          "internalType": "address",
          "name": "owner",
          "type": "address"
        }
      ],
      "name": "balanceOf",
      "outputs": [
        {
          "internalType": "uint256",
          "name": "",
          "type": "uint256"
        }
      ],
      "stateMutability": "view",
      "type": "function"
    },
    {
      "inputs": [
        {
          "internalType": "uint256",
          "name": "tokenId",
          "type": "uint256"
        }
      ],
      "name": "getApproved",
      "outputs": [
        {
          "internalType": "address",
          "name": "",
          "type": "address"
        }
      ],
      "stateMutability": "view",
      "type": "function"
    },
    {
      "inputs": [],
      "name": "getNextTokenId",
      "outputs": [
        {
          "internalType": "uint256",
          "name": "",
          "type": "uint256"
        }
      ],
      "stateMutability": "view",
      "type": "function"
    },
    {
      "inputs": [
        {
          "internalType": "address",
          "name": "owner",
          "type": "address"
        },
        {
          "internalType": "address",
          "name": "operator",
          "type": "address"
        }
      ],
      "name": "isApprovedForAll",
      "outputs": [
        {
          "internalType": "bool",
          "name": "",
          "type": "bool"
        }
      ],
      "stateMutability": "view",
      "type": "function"
    },
    {
      "inputs": [
        {
          "internalType": "uint256",
          "name": "_amount",
          "type": "uint256"
        }
      ],
      "name": "mint",
      "outputs": [],
      "stateMutability": "payable",
      "type": "function"
    },
    {
      "inputs": [],
      "name": "name",
      "outputs": [
        {
          "internalType": "string",
          "name": "",
          "type": "string"
        }
      ],
      "stateMutability": "view",
      "type": "function"
    },
    {
      "inputs": [],
      "name": "nextTokenId",
      "outputs": [
        {
          "internalType": "uint256",
          "name": "",
          "type": "uint256"
        }
      ],
      "stateMutability": "view",
      "type": "function"
    },
    {
      "inputs": [],
      "name": "nftPrice",
      "outputs": [
        {
          "internalType": "uint256",
          "name": "",
          "type": "uint256"
        }
      ],
      "stateMutability": "view",
      "type": "function"
    },
    {
      "inputs": [],
      "name": "owner",
      "outputs": [
        {
          "internalType": "address",
          "name": "",
          "type": "address"
        }
      ],
      "stateMutability": "view",
      "type": "function"
    },
    {
      "inputs": [
        {
          "internalType": "uint256",
          "name": "tokenId",
          "type": "uint256"
        }
      ],
      "name": "ownerOf",
      "outputs": [
        {
          "internalType": "address",
          "name": "",
          "type": "address"
        }
      ],
      "stateMutability": "view",
      "type": "function"
    },
    {
      "inputs": [],
      "name": "renounceOwnership",
      "outputs": [],
      "stateMutability": "nonpayable",
      "type": "function"
    },
    {
      "inputs": [
        {
          "internalType": "address",
          "name": "from",
          "type": "address"
        },
        {
          "internalType": "address",
          "name": "to",
          "type": "address"
        },
        {
          "internalType": "uint256",
          "name": "tokenId",
          "type": "uint256"
        }
      ],
      "name": "safeTransferFrom",
      "outputs": [],
      "stateMutability": "nonpayable",
      "type": "function"
    },
    {
      "inputs": [
        {
          "internalType": "address",
          "name": "from",
          "type": "address"
        },
        {
          "internalType": "address",
          "name": "to",
          "type": "address"
        },
        {
          "internalType": "uint256",
          "name": "tokenId",
          "type": "uint256"
        },
        {
          "internalType": "bytes",
          "name": "data",
          "type": "bytes"
        }
      ],
      "name": "safeTransferFrom",
      "outputs": [],
      "stateMutability": "nonpayable",
      "type": "function"
    },
    {
      "inputs": [
        {
          "internalType": "address",
          "name": "operator",
          "type": "address"
        },
        {
          "internalType": "bool",
          "name": "approved",
          "type": "bool"
        }
      ],
      "name": "setApprovalForAll",
      "outputs": [],
      "stateMutability": "nonpayable",
      "type": "function"
    },
    {
      "inputs": [
        {
          "internalType": "bytes4",
          "name": "interfaceId",
          "type": "bytes4"
        }
      ],
      "name": "supportsInterface",
      "outputs": [
        {
          "internalType": "bool",
          "name": "",
          "type": "bool"
        }
      ],
      "stateMutability": "view",
      "type": "function"
    },
    {
      "inputs": [],
      "name": "symbol",
      "outputs": [
        {
          "internalType": "string",
          "name": "",
          "type": "string"
        }
      ],
      "stateMutability": "view",
      "type": "function"
    },
    {
      "inputs": [
        {
          "internalType": "uint256",
          "name": "index",
          "type": "uint256"
        }
      ],
      "name": "tokenByIndex",
      "outputs": [
        {
          "internalType": "uint256",
          "name": "",
          "type": "uint256"
        }
      ],
      "stateMutability": "view",
      "type": "function"
    },
    {
      "inputs": [
        {
          "internalType": "address",
          "name": "owner",
          "type": "address"
        },
        {
          "internalType": "uint256",
          "name": "index",
          "type": "uint256"
        }
      ],
      "name": "tokenOfOwnerByIndex",
      "outputs": [
        {
          "internalType": "uint256",
          "name": "",
          "type": "uint256"
        }
      ],
      "stateMutability": "view",
      "type": "function"
    },
    {
      "inputs": [
        {
          "internalType": "uint256",
          "name": "tokenId",
          "type": "uint256"
        }
      ],
      "name": "tokenURI",
      "outputs": [
        {
          "internalType": "string",
          "name": "",
          "type": "string"
        }
      ],
      "stateMutability": "view",
      "type": "function"
    },
    {
      "inputs": [
        {
          "internalType": "address",
          "name": "owner",
          "type": "address"
        }
      ],
      "name": "tokensOwnedByAddr",
      "outputs": [
        {
          "internalType": "uint256[]",
          "name": "",
          "type": "uint256[]"
        }
      ],
      "stateMutability": "view",
      "type": "function"
    },
    {
      "inputs": [],
      "name": "totalSupply",
      "outputs": [
        {
          "internalType": "uint256",
          "name": "",
          "type": "uint256"
        }
      ],
      "stateMutability": "view",
      "type": "function"
    },
    {
      "inputs": [
        {
          "internalType": "address",
          "name": "from",
          "type": "address"
        },
        {
          "internalType": "address",
          "name": "to",
          "type": "address"
        },
        {
          "internalType": "uint256",
          "name": "tokenId",
          "type": "uint256"
        }
      ],
      "name": "transferFrom",
      "outputs": [],
      "stateMutability": "nonpayable",
      "type": "function"
    },
    {
      "inputs": [
        {
          "internalType": "address",
          "name": "newOwner",
          "type": "address"
        }
      ],
      "name": "transferOwnership",
      "outputs": [],
      "stateMutability": "nonpayable",
      "type": "function"
    },
    {
      "stateMutability": "payable",
      "type": "receive"
    }
  ],
  "bytecode": "0x60806040523480156200001157600080fd5b50604080518082018252600780825266121e5c1953919560ca1b602080840182905284518086019095529184529083015233916000620000528382620001a8565b506001620000618282620001a8565b5050506001600160a01b0381166200009357604051631e4fbdf760e01b81526000600482015260240160405180910390fd5b6200009e81620000af565b506001600b819055600c5562000274565b600a80546001600160a01b038381166001600160a01b0319831681179093556040519116919082907f8be0079c531659141344cd1fd0a4f28419497f9722a3daafe3b4186f6b6457e090600090a35050565b634e487b7160e01b600052604160045260246000fd5b600181811c908216806200012c57607f821691505b6020821081036200014d57634e487b7160e01b600052602260045260246000fd5b50919050565b601f821115620001a3576000816000526020600020601f850160051c810160208610156200017e5750805b601f850160051c820191505b818110156200019f578281556001016200018a565b5050505b505050565b81516001600160401b03811115620001c457620001c462000101565b620001dc81620001d5845462000117565b8462000153565b602080601f831160018114620002145760008415620001fb5750858301515b600019600386901b1c1916600185901b1785556200019f565b600085815260208120601f198616915b82811015620002455788860151825594840194600190910190840162000224565b5085821015620002645787850151600019600388901b60f8161c191681555b5050505050600190811b01905550565b61195480620002846000396000f3fe60806040526004361061014f5760003560e01c8063715018a6116100b6578063a22cb4651161006f578063a22cb465146103a9578063b88d4fde146103c9578063c87b56dd146103e9578063caa0f92a14610409578063e985e9c51461041e578063f2fde38b1461043e57600080fd5b8063715018a61461030b57806375794a3c146103205780638779ef4a146103365780638da5cb5b1461036357806395d89b4114610381578063a0712d681461039657600080fd5b806323b872dd1161010857806323b872dd1461024b5780632f745c591461026b57806342842e0e1461028b5780634f6ccce7146102ab5780636352211e146102cb57806370a08231146102eb57600080fd5b806301ffc9a71461015b57806306fdde0314610190578063081812fc146101b2578063095ea7b3146101ea5780630d39fc811461020c57806318160ddd1461023657600080fd5b3661015657005b600080fd5b34801561016757600080fd5b5061017b610176366004611501565b61045e565b60405190151581526020015b60405180910390f35b34801561019c57600080fd5b506101a5610489565b604051610187919061156e565b3480156101be57600080fd5b506101d26101cd366004611581565b61051b565b6040516001600160a01b039091168152602001610187565b3480156101f657600080fd5b5061020a6102053660046115b6565b610544565b005b34801561021857600080fd5b5061022867016345785d8a000081565b604051908152602001610187565b34801561024257600080fd5b50600854610228565b34801561025757600080fd5b5061020a6102663660046115e0565b610553565b34801561027757600080fd5b506102286102863660046115b6565b6105e3565b34801561029757600080fd5b5061020a6102a63660046115e0565b610648565b3480156102b757600080fd5b506102286102c6366004611581565b610668565b3480156102d757600080fd5b506101d26102e6366004611581565b6106c1565b3480156102f757600080fd5b5061022861030636600461161c565b6106cc565b34801561031757600080fd5b5061020a610714565b34801561032c57600080fd5b50610228600c5481565b34801561034257600080fd5b5061035661035136600461161c565b610728565b6040516101879190611637565b34801561036f57600080fd5b50600a546001600160a01b03166101d2565b34801561038d57600080fd5b506101a56107c0565b61020a6103a4366004611581565b6107cf565b3480156103b557600080fd5b5061020a6103c436600461167b565b6109b8565b3480156103d557600080fd5b5061020a6103e43660046116cd565b6109c3565b3480156103f557600080fd5b506101a5610404366004611581565b6109da565b34801561041557600080fd5b50600c54610228565b34801561042a57600080fd5b5061017b6104393660046117a9565b610a4f565b34801561044a57600080fd5b5061020a61045936600461161c565b610a7d565b60006001600160e01b0319821663780e9d6360e01b1480610483575061048382610ab8565b92915050565b606060008054610498906117dc565b80601f01602080910402602001604051908101604052809291908181526020018280546104c4906117dc565b80156105115780601f106104e657610100808354040283529160200191610511565b820191906000526020600020905b8154815290600101906020018083116104f457829003601f168201915b5050505050905090565b600061052682610b08565b506000828152600460205260409020546001600160a01b0316610483565b61054f828233610b41565b5050565b6001600160a01b03821661058257604051633250574960e11b8152600060048201526024015b60405180910390fd5b600061058f838333610b4e565b9050836001600160a01b0316816001600160a01b0316146105dd576040516364283d7b60e01b81526001600160a01b0380861660048301526024820184905282166044820152606401610579565b50505050565b60006105ee836106cc565b821061061f5760405163295f44f760e21b81526001600160a01b038416600482015260248101839052604401610579565b506001600160a01b03919091166000908152600660209081526040808320938352929052205490565b610663838383604051806020016040528060008152506109c3565b505050565b600061067360085490565b821061069c5760405163295f44f760e21b81526000600482015260248101839052604401610579565b600882815481106106af576106af611816565b90600052602060002001549050919050565b600061048382610b08565b60006001600160a01b0382166106f8576040516322718ad960e21b815260006004820152602401610579565b506001600160a01b031660009081526003602052604090205490565b61071c610c23565b6107266000610c50565b565b60606000610735836106cc565b905060008167ffffffffffffffff811115610752576107526116b7565b60405190808252806020026020018201604052801561077b578160200160208202803683370190505b50905060005b828110156107b85761079385826105e3565b8282815181106107a5576107a5611816565b6020908102919091010152600101610781565b509392505050565b606060018054610498906117dc565b6107d7610ca2565b806000036107e457600080fd5b60006107f867016345785d8a000083611842565b90508034101561080757600080fd5b600c8054908390600061081a8385611859565b90915550600090505b8381101561084a576108353383610ccc565b610840600183611859565b9150600101610823565b50600061085f600a546001600160a01b031690565b6001600160a01b03163460405160006040518083038185875af1925050503d80600081146108a9576040519150601f19603f3d011682016040523d82523d6000602084013e6108ae565b606091505b50909150508015156000036108ff5760405162461bcd60e51b81526020600482015260176024820152764572726f72207768696c65207472616e73666572696e6760481b6044820152606401610579565b823411156109a857600033610914853461186c565b604051600081818185875af1925050503d8060008114610950576040519150601f19603f3d011682016040523d82523d6000602084013e610955565b606091505b50909150508015156000036109a65760405162461bcd60e51b81526020600482015260176024820152764572726f72207768696c65207472616e73666572696e6760481b6044820152606401610579565b505b5050506109b56001600b55565b50565b61054f338383610ce6565b6109ce848484610553565b6105dd84848484610d85565b60606109e582610b08565b5060006109fd60408051602081019091526000815290565b90506000815111610a1d5760405180602001604052806000815250610a48565b80610a2784610eae565b604051602001610a3892919061187f565b6040516020818303038152906040525b9392505050565b6001600160a01b03918216600090815260056020908152604080832093909416825291909152205460ff1690565b610a85610c23565b6001600160a01b038116610aaf57604051631e4fbdf760e01b815260006004820152602401610579565b6109b581610c50565b60006001600160e01b031982166380ac58cd60e01b1480610ae957506001600160e01b03198216635b5e139f60e01b145b8061048357506301ffc9a760e01b6001600160e01b0319831614610483565b6000818152600260205260408120546001600160a01b03168061048357604051637e27328960e01b815260048101849052602401610579565b6106638383836001610f41565b600080610b5c858585611047565b90506001600160a01b038116610bb957610bb484600880546000838152600960205260408120829055600182018355919091527ff3f7a9fe364faab93b216da50a3214154f22a0a2b415b23a84c8169e8b636ee30155565b610bdc565b846001600160a01b0316816001600160a01b031614610bdc57610bdc8185611140565b6001600160a01b038516610bf857610bf3846111d1565b610c1b565b846001600160a01b0316816001600160a01b031614610c1b57610c1b8585611280565b949350505050565b600a546001600160a01b031633146107265760405163118cdaa760e01b8152336004820152602401610579565b600a80546001600160a01b038381166001600160a01b0319831681179093556040519116919082907f8be0079c531659141344cd1fd0a4f28419497f9722a3daafe3b4186f6b6457e090600090a35050565b6002600b5403610cc557604051633ee5aeb560e01b815260040160405180910390fd5b6002600b55565b61054f8282604051806020016040528060008152506112d0565b6001600160a01b038216610d1857604051630b61174360e31b81526001600160a01b0383166004820152602401610579565b6001600160a01b03838116600081815260056020908152604080832094871680845294825291829020805460ff191686151590811790915591519182527f17307eab39ab6107e8899845ad3d59bd9653f200f220920489ca2b5937696c31910160405180910390a3505050565b6001600160a01b0383163b156105dd57604051630a85bd0160e11b81526001600160a01b0384169063150b7a0290610dc79033908890879087906004016118ae565b6020604051808303816000875af1925050508015610e02575060408051601f3d908101601f19168201909252610dff918101906118eb565b60015b610e6b573d808015610e30576040519150601f19603f3d011682016040523d82523d6000602084013e610e35565b606091505b508051600003610e6357604051633250574960e11b81526001600160a01b0385166004820152602401610579565b805181602001fd5b6001600160e01b03198116630a85bd0160e11b14610ea757604051633250574960e11b81526001600160a01b0385166004820152602401610579565b5050505050565b60606000610ebb836112e7565b600101905060008167ffffffffffffffff811115610edb57610edb6116b7565b6040519080825280601f01601f191660200182016040528015610f05576020820181803683370190505b5090508181016020015b600019016f181899199a1a9b1b9c1cb0b131b232b360811b600a86061a8153600a8504945084610f0f57509392505050565b8080610f5557506001600160a01b03821615155b15611017576000610f6584610b08565b90506001600160a01b03831615801590610f915750826001600160a01b0316816001600160a01b031614155b8015610fa45750610fa28184610a4f565b155b15610fcd5760405163a9fbf51f60e01b81526001600160a01b0384166004820152602401610579565b81156110155783856001600160a01b0316826001600160a01b03167f8c5be1e5ebec7d5bd14f71427d1e84f3dd0314c0f7b2291e5b200ac8c7c3b92560405160405180910390a45b505b5050600090815260046020526040902080546001600160a01b0319166001600160a01b0392909216919091179055565b6000828152600260205260408120546001600160a01b0390811690831615611074576110748184866113bf565b6001600160a01b038116156110b257611091600085600080610f41565b6001600160a01b038116600090815260036020526040902080546000190190555b6001600160a01b038516156110e1576001600160a01b0385166000908152600360205260409020805460010190555b60008481526002602052604080822080546001600160a01b0319166001600160a01b0389811691821790925591518793918516917fddf252ad1be2c89b69c2b068fc378daa952ba7f163c4a11628f55a4df523b3ef91a4949350505050565b600061114b836106cc565b60008381526007602052604090205490915080821461119e576001600160a01b03841660009081526006602090815260408083208584528252808320548484528184208190558352600790915290208190555b5060009182526007602090815260408084208490556001600160a01b039094168352600681528383209183525290812055565b6008546000906111e39060019061186c565b6000838152600960205260408120546008805493945090928490811061120b5761120b611816565b90600052602060002001549050806008838154811061122c5761122c611816565b600091825260208083209091019290925582815260099091526040808220849055858252812055600880548061126457611264611908565b6001900381819060005260206000200160009055905550505050565b6000600161128d846106cc565b611297919061186c565b6001600160a01b039093166000908152600660209081526040808320868452825280832085905593825260079052919091209190915550565b6112da8383611423565b6106636000848484610d85565b60008072184f03e93ff9f4daa797ed6e38ed64bf6a1f0160401b83106113265772184f03e93ff9f4daa797ed6e38ed64bf6a1f0160401b830492506040015b6d04ee2d6d415b85acef81000000008310611352576d04ee2d6d415b85acef8100000000830492506020015b662386f26fc10000831061137057662386f26fc10000830492506010015b6305f5e1008310611388576305f5e100830492506008015b612710831061139c57612710830492506004015b606483106113ae576064830492506002015b600a83106104835760010192915050565b6113ca838383611488565b610663576001600160a01b0383166113f857604051637e27328960e01b815260048101829052602401610579565b60405163177e802f60e01b81526001600160a01b038316600482015260248101829052604401610579565b6001600160a01b03821661144d57604051633250574960e11b815260006004820152602401610579565b600061145b83836000610b4e565b90506001600160a01b03811615610663576040516339e3563760e11b815260006004820152602401610579565b60006001600160a01b03831615801590610c1b5750826001600160a01b0316846001600160a01b031614806114c257506114c28484610a4f565b80610c1b5750506000908152600460205260409020546001600160a01b03908116911614919050565b6001600160e01b0319811681146109b557600080fd5b60006020828403121561151357600080fd5b8135610a48816114eb565b60005b83811015611539578181015183820152602001611521565b50506000910152565b6000815180845261155a81602086016020860161151e565b601f01601f19169290920160200192915050565b602081526000610a486020830184611542565b60006020828403121561159357600080fd5b5035919050565b80356001600160a01b03811681146115b157600080fd5b919050565b600080604083850312156115c957600080fd5b6115d28361159a565b946020939093013593505050565b6000806000606084860312156115f557600080fd5b6115fe8461159a565b925061160c6020850161159a565b9150604084013590509250925092565b60006020828403121561162e57600080fd5b610a488261159a565b6020808252825182820181905260009190848201906040850190845b8181101561166f57835183529284019291840191600101611653565b50909695505050505050565b6000806040838503121561168e57600080fd5b6116978361159a565b9150602083013580151581146116ac57600080fd5b809150509250929050565b634e487b7160e01b600052604160045260246000fd5b600080600080608085870312156116e357600080fd5b6116ec8561159a565b93506116fa6020860161159a565b925060408501359150606085013567ffffffffffffffff8082111561171e57600080fd5b818701915087601f83011261173257600080fd5b813581811115611744576117446116b7565b604051601f8201601f19908116603f0116810190838211818310171561176c5761176c6116b7565b816040528281528a602084870101111561178557600080fd5b82602086016020830137600060208483010152809550505050505092959194509250565b600080604083850312156117bc57600080fd5b6117c58361159a565b91506117d36020840161159a565b90509250929050565b600181811c908216806117f057607f821691505b60208210810361181057634e487b7160e01b600052602260045260246000fd5b50919050565b634e487b7160e01b600052603260045260246000fd5b634e487b7160e01b600052601160045260246000fd5b80820281158282048414176104835761048361182c565b808201808211156104835761048361182c565b818103818111156104835761048361182c565b6000835161189181846020880161151e565b8351908301906118a581836020880161151e565b01949350505050565b6001600160a01b03858116825284166020820152604081018390526080606082018190526000906118e190830184611542565b9695505050505050565b6000602082840312156118fd57600080fd5b8151610a48816114eb565b634e487b7160e01b600052603160045260246000fdfea2646970667358221220e1c0385eecbaff25b2ea76c7fb7a02808b69cd40c8feb31c91d903d32bcd9af564736f6c63430008180033",
  "linkReferences": {},
  "deployedLinkReferences": {}
}